{
  "_format": "hh-sol-artifact-1",
  "contractName": "CitizenData",
  "sourceName": "contracts/CitizenData.sol",
  "abi": [
    {
      "anonymous": false,
      "inputs": [
        {
          "indexed": true,
          "internalType": "address",
          "name": "owner",
          "type": "address"
        },
        {
          "indexed": true,
          "internalType": "address",
          "name": "grantee",
          "type": "address"
        },
        {
          "indexed": false,
          "internalType": "string",
          "name": "cid",
          "type": "string"
        }
      ],
      "name": "AccessGranted",
      "type": "event"
    },
    {
      "anonymous": false,
      "inputs": [
        {
          "indexed": true,
          "internalType": "address",
          "name": "owner",
          "type": "address"
        },
        {
          "indexed": true,
          "internalType": "address",
          "name": "grantee",
          "type": "address"
        },
        {
          "indexed": false,
          "internalType": "string",
          "name": "cid",
          "type": "string"
        }
      ],
      "name": "AccessRevoked",
      "type": "event"
    },
    {
      "anonymous": false,
      "inputs": [
        {
          "indexed": true,
          "internalType": "address",
          "name": "owner",
          "type": "address"
        },
        {
          "indexed": false,
          "internalType": "string",
          "name": "cid",
          "type": "string"
        },
        {
          "indexed": false,
          "internalType": "string",
          "name": "category",
          "type": "string"
        }
      ],
      "name": "DocumentUploaded",
      "type": "event"
    },
    {
      "inputs": [
        {
          "internalType": "address",
          "name": "user",
          "type": "address"
        },
        {
          "internalType": "string",
          "name": "_category",
          "type": "string"
        }
      ],
      "name": "getDocuments",
      "outputs": [
        {
          "internalType": "string[]",
          "name": "",
          "type": "string[]"
        }
      ],
      "stateMutability": "view",
      "type": "function"
    },
    {
      "inputs": [
        {
          "internalType": "uint256",
          "name": "docId",
          "type": "uint256"
        },
        {
          "internalType": "address",
          "name": "grantee",
          "type": "address"
        }
      ],
      "name": "grantAccess",
      "outputs": [],
      "stateMutability": "nonpayable",
      "type": "function"
    },
    {
      "inputs": [
        {
          "internalType": "uint256",
          "name": "docId",
          "type": "uint256"
        },
        {
          "internalType": "address",
          "name": "grantee",
          "type": "address"
        }
      ],
      "name": "revokeAccess",
      "outputs": [],
      "stateMutability": "nonpayable",
      "type": "function"
    },
    {
      "inputs": [
        {
          "internalType": "string",
          "name": "_cid",
          "type": "string"
        },
        {
          "internalType": "string",
          "name": "_category",
          "type": "string"
        }
      ],
      "name": "uploadDocument",
      "outputs": [],
      "stateMutability": "nonpayable",
      "type": "function"
    }
  ],
  "bytecode": "0x608060405234801561001057600080fd5b506117f2806100206000396000f3fe608060405234801561001057600080fd5b506004361061004c5760003560e01c80631fb7574e146100515780634464fe331461008157806365dd152c1461009d578063d9a5ec1b146100b9575b600080fd5b61006b60048036038101906100669190610e9f565b6100d5565b604051610078919061103c565b60405180910390f35b61009b6004803603810190610096919061105e565b61074f565b005b6100b760048036038101906100b2919061110c565b61086b565b005b6100d360048036038101906100ce919061110c565b610aa9565b005b60606000805b6000808673ffffffffffffffffffffffffffffffffffffffff1673ffffffffffffffffffffffffffffffffffffffff1681526020019081526020016000208054905081101561035f576000808673ffffffffffffffffffffffffffffffffffffffff1673ffffffffffffffffffffffffffffffffffffffff16815260200190815260200160002081815481106101745761017361114c565b5b906000526020600020906004020160020160009054906101000a900473ffffffffffffffffffffffffffffffffffffffff1673ffffffffffffffffffffffffffffffffffffffff163373ffffffffffffffffffffffffffffffffffffffff16148061028757506000808673ffffffffffffffffffffffffffffffffffffffff1673ffffffffffffffffffffffffffffffffffffffff168152602001908152602001600020818154811061022a5761022961114c565b5b906000526020600020906004020160030160003373ffffffffffffffffffffffffffffffffffffffff1673ffffffffffffffffffffffffffffffffffffffff16815260200190815260200160002060009054906101000a900460ff165b801561033e57508360405160200161029f91906111b7565b604051602081830303815290604052805190602001206000808773ffffffffffffffffffffffffffffffffffffffff1673ffffffffffffffffffffffffffffffffffffffff16815260200190815260200160002082815481106103055761030461114c565b5b906000526020600020906004020160010160405160200161032691906112c6565b60405160208183030381529060405280519060200120145b1561035257818061034e9061130c565b9250505b80806001019150506100db565b5060008167ffffffffffffffff81111561037c5761037b610d74565b5b6040519080825280602002602001820160405280156103af57816020015b606081526020019060019003908161039a5790505b5090506000805b6000808873ffffffffffffffffffffffffffffffffffffffff1673ffffffffffffffffffffffffffffffffffffffff16815260200190815260200160002080549050811015610742576000808873ffffffffffffffffffffffffffffffffffffffff1673ffffffffffffffffffffffffffffffffffffffff168152602001908152602001600020818154811061044f5761044e61114c565b5b906000526020600020906004020160020160009054906101000a900473ffffffffffffffffffffffffffffffffffffffff1673ffffffffffffffffffffffffffffffffffffffff163373ffffffffffffffffffffffffffffffffffffffff16148061056257506000808873ffffffffffffffffffffffffffffffffffffffff1673ffffffffffffffffffffffffffffffffffffffff16815260200190815260200160002081815481106105055761050461114c565b5b906000526020600020906004020160030160003373ffffffffffffffffffffffffffffffffffffffff1673ffffffffffffffffffffffffffffffffffffffff16815260200190815260200160002060009054906101000a900460ff165b801561061957508560405160200161057a91906111b7565b604051602081830303815290604052805190602001206000808973ffffffffffffffffffffffffffffffffffffffff1673ffffffffffffffffffffffffffffffffffffffff16815260200190815260200160002082815481106105e0576105df61114c565b5b906000526020600020906004020160010160405160200161060191906112c6565b60405160208183030381529060405280519060200120145b15610735576000808873ffffffffffffffffffffffffffffffffffffffff1673ffffffffffffffffffffffffffffffffffffffff168152602001908152602001600020818154811061066e5761066d61114c565b5b9060005260206000209060040201600001805461068a906111fd565b80601f01602080910402602001604051908101604052809291908181526020018280546106b6906111fd565b80156107035780601f106106d857610100808354040283529160200191610703565b820191906000526020600020905b8154815290600101906020018083116106e657829003601f168201915b505050505083838151811061071b5761071a61114c565b5b602002602001018190525081806107319061130c565b9250505b80806001019150506103b6565b5081935050505092915050565b60008060003373ffffffffffffffffffffffffffffffffffffffff1673ffffffffffffffffffffffffffffffffffffffff1681526020019081526020016000206001816001815401808255809150500390600052602060002090600402019050828160000190816107c091906114eb565b50818160010190816107d291906114eb565b50338160020160006101000a81548173ffffffffffffffffffffffffffffffffffffffff021916908373ffffffffffffffffffffffffffffffffffffffff1602179055503373ffffffffffffffffffffffffffffffffffffffff167f63630f357f7a0fe7466b2c369dab72c6b5e951f8e9c0de24fa8f4ee1d10c62d9848460405161085e929190611607565b60405180910390a2505050565b6000803373ffffffffffffffffffffffffffffffffffffffff1673ffffffffffffffffffffffffffffffffffffffff1681526020019081526020016000208054905082106108ee576040517f08c379a00000000000000000000000000000000000000000000000000000000081526004016108e59061168a565b60405180910390fd5b60008060003373ffffffffffffffffffffffffffffffffffffffff1673ffffffffffffffffffffffffffffffffffffffff16815260200190815260200160002083815481106109405761093f61114c565b5b906000526020600020906004020190508060020160009054906101000a900473ffffffffffffffffffffffffffffffffffffffff1673ffffffffffffffffffffffffffffffffffffffff163373ffffffffffffffffffffffffffffffffffffffff16146109e2576040517f08c379a00000000000000000000000000000000000000000000000000000000081526004016109d9906116f6565b60405180910390fd5b60018160030160008473ffffffffffffffffffffffffffffffffffffffff1673ffffffffffffffffffffffffffffffffffffffff16815260200190815260200160002060006101000a81548160ff0219169083151502179055508173ffffffffffffffffffffffffffffffffffffffff163373ffffffffffffffffffffffffffffffffffffffff167fc7e5c007251689b9bc3cb624f55714afc5988f3e3b4e20cc6a606d7bad6faeca83600001604051610a9c919061179a565b60405180910390a3505050565b6000803373ffffffffffffffffffffffffffffffffffffffff1673ffffffffffffffffffffffffffffffffffffffff168152602001908152602001600020805490508210610b2c576040517f08c379a0000000000000000000000000000000000000000000000000000000008152600401610b239061168a565b60405180910390fd5b60008060003373ffffffffffffffffffffffffffffffffffffffff1673ffffffffffffffffffffffffffffffffffffffff1681526020019081526020016000208381548110610b7e57610b7d61114c565b5b906000526020600020906004020190508060020160009054906101000a900473ffffffffffffffffffffffffffffffffffffffff1673ffffffffffffffffffffffffffffffffffffffff163373ffffffffffffffffffffffffffffffffffffffff1614610c20576040517f08c379a0000000000000000000000000000000000000000000000000000000008152600401610c17906116f6565b60405180910390fd5b60008160030160008473ffffffffffffffffffffffffffffffffffffffff1673ffffffffffffffffffffffffffffffffffffffff16815260200190815260200160002060006101000a81548160ff0219169083151502179055508173ffffffffffffffffffffffffffffffffffffffff163373ffffffffffffffffffffffffffffffffffffffff167f0a2382b7b0f44ee62df753c00034038c109332bf9b8f52418af74aa2859780fb83600001604051610cda919061179a565b60405180910390a3505050565b6000604051905090565b600080fd5b600080fd5b600073ffffffffffffffffffffffffffffffffffffffff82169050919050565b6000610d2682610cfb565b9050919050565b610d3681610d1b565b8114610d4157600080fd5b50565b600081359050610d5381610d2d565b92915050565b600080fd5b600080fd5b6000601f19601f8301169050919050565b7f4e487b7100000000000000000000000000000000000000000000000000000000600052604160045260246000fd5b610dac82610d63565b810181811067ffffffffffffffff82111715610dcb57610dca610d74565b5b80604052505050565b6000610dde610ce7565b9050610dea8282610da3565b919050565b600067ffffffffffffffff821115610e0a57610e09610d74565b5b610e1382610d63565b9050602081019050919050565b82818337600083830152505050565b6000610e42610e3d84610def565b610dd4565b905082815260208101848484011115610e5e57610e5d610d5e565b5b610e69848285610e20565b509392505050565b600082601f830112610e8657610e85610d59565b5b8135610e96848260208601610e2f565b91505092915050565b60008060408385031215610eb657610eb5610cf1565b5b6000610ec485828601610d44565b925050602083013567ffffffffffffffff811115610ee557610ee4610cf6565b5b610ef185828601610e71565b9150509250929050565b600081519050919050565b600082825260208201905092915050565b6000819050602082019050919050565b600081519050919050565b600082825260208201905092915050565b60005b83811015610f61578082015181840152602081019050610f46565b60008484015250505050565b6000610f7882610f27565b610f828185610f32565b9350610f92818560208601610f43565b610f9b81610d63565b840191505092915050565b6000610fb28383610f6d565b905092915050565b6000602082019050919050565b6000610fd282610efb565b610fdc8185610f06565b935083602082028501610fee85610f17565b8060005b8581101561102a578484038952815161100b8582610fa6565b945061101683610fba565b925060208a01995050600181019050610ff2565b50829750879550505050505092915050565b600060208201905081810360008301526110568184610fc7565b905092915050565b6000806040838503121561107557611074610cf1565b5b600083013567ffffffffffffffff81111561109357611092610cf6565b5b61109f85828601610e71565b925050602083013567ffffffffffffffff8111156110c0576110bf610cf6565b5b6110cc85828601610e71565b9150509250929050565b6000819050919050565b6110e9816110d6565b81146110f457600080fd5b50565b600081359050611106816110e0565b92915050565b6000806040838503121561112357611122610cf1565b5b6000611131858286016110f7565b925050602061114285828601610d44565b9150509250929050565b7f4e487b7100000000000000000000000000000000000000000000000000000000600052603260045260246000fd5b600081905092915050565b600061119182610f27565b61119b818561117b565b93506111ab818560208601610f43565b80840191505092915050565b60006111c38284611186565b915081905092915050565b7f4e487b7100000000000000000000000000000000000000000000000000000000600052602260045260246000fd5b6000600282049050600182168061121557607f821691505b602082108103611228576112276111ce565b5b50919050565b60008190508160005260206000209050919050565b60008154611250816111fd565b61125a818661117b565b94506001821660008114611275576001811461128a576112bd565b60ff19831686528115158202860193506112bd565b6112938561122e565b60005b838110156112b557815481890152600182019150602081019050611296565b838801955050505b50505092915050565b60006112d28284611243565b915081905092915050565b7f4e487b7100000000000000000000000000000000000000000000000000000000600052601160045260246000fd5b6000611317826110d6565b91507fffffffffffffffffffffffffffffffffffffffffffffffffffffffffffffffff8203611349576113486112dd565b5b600182019050919050565b60006020601f8301049050919050565b600082821b905092915050565b6000600883026113a17fffffffffffffffffffffffffffffffffffffffffffffffffffffffffffffffff82611364565b6113ab8683611364565b95508019841693508086168417925050509392505050565b6000819050919050565b60006113e86113e36113de846110d6565b6113c3565b6110d6565b9050919050565b6000819050919050565b611402836113cd565b61141661140e826113ef565b848454611371565b825550505050565b600090565b61142b61141e565b6114368184846113f9565b505050565b5b8181101561145a5761144f600082611423565b60018101905061143c565b5050565b601f82111561149f576114708161122e565b61147984611354565b81016020851015611488578190505b61149c61149485611354565b83018261143b565b50505b505050565b600082821c905092915050565b60006114c2600019846008026114a4565b1980831691505092915050565b60006114db83836114b1565b9150826002028217905092915050565b6114f482610f27565b67ffffffffffffffff81111561150d5761150c610d74565b5b61151782546111fd565b61152282828561145e565b600060209050601f8311600181146115555760008415611543578287015190505b61154d85826114cf565b8655506115b5565b601f1984166115638661122e565b60005b8281101561158b57848901518255600182019150602085019450602081019050611566565b868310156115a857848901516115a4601f8916826114b1565b8355505b6001600288020188555050505b505050505050565b600082825260208201905092915050565b60006115d982610f27565b6115e381856115bd565b93506115f3818560208601610f43565b6115fc81610d63565b840191505092915050565b6000604082019050818103600083015261162181856115ce565b9050818103602083015261163581846115ce565b90509392505050565b7f496e76616c696420646f63204944000000000000000000000000000000000000600082015250565b6000611674600e836115bd565b915061167f8261163e565b602082019050919050565b600060208201905081810360008301526116a381611667565b9050919050565b7f4e6f74206f776e65720000000000000000000000000000000000000000000000600082015250565b60006116e06009836115bd565b91506116eb826116aa565b602082019050919050565b6000602082019050818103600083015261170f816116d3565b9050919050565b60008154611723816111fd565b61172d81866115bd565b94506001821660008114611748576001811461175e57611791565b60ff198316865281151560200286019350611791565b6117678561122e565b60005b838110156117895781548189015260018201915060208101905061176a565b808801955050505b50505092915050565b600060208201905081810360008301526117b48184611716565b90509291505056fea264697066735822122017af978380a902eb1cff028b13845d23e73cf77e1c3829cb8eba0ba758a4c9f964736f6c63430008180033",
  "linkReferences": {},
  "deployedLinkReferences": {}
}