{
  "_format": "hh-sol-artifact-1",
  "contractName": "CitizenData",
  "sourceName": "contracts/CitizenData.sol",
  "abi": [
    {
      "anonymous": false,
      "inputs": [
        {
          "indexed": true,
          "internalType": "address",
          "name": "owner",
          "type": "address"
        },
        {
          "indexed": true,
          "internalType": "address",
          "name": "user",
          "type": "address"
        }
      ],
      "name": "AccessGranted",
      "type": "event"
    },
    {
      "anonymous": false,
      "inputs": [
        {
          "indexed": true,
          "internalType": "address",
          "name": "owner",
          "type": "address"
        },
        {
          "indexed": true,
          "internalType": "address",
          "name": "user",
          "type": "address"
        }
      ],
      "name": "AccessRevoked",
      "type": "event"
    },
    {
      "anonymous": false,
      "inputs": [
        {
          "indexed": true,
          "internalType": "address",
          "name": "user",
          "type": "address"
        },
        {
          "indexed": false,
          "internalType": "string",
          "name": "cid",
          "type": "string"
        },
        {
          "indexed": false,
          "internalType": "string",
          "name": "category",
          "type": "string"
        }
      ],
      "name": "DocumentUploaded",
      "type": "event"
    },
    {
      "inputs": [
        {
          "internalType": "address",
          "name": "_owner",
          "type": "address"
        },
        {
          "internalType": "address",
          "name": "_user",
          "type": "address"
        }
      ],
      "name": "checkAccess",
      "outputs": [
        {
          "internalType": "bool",
          "name": "",
          "type": "bool"
        }
      ],
      "stateMutability": "view",
      "type": "function"
    },
    {
      "inputs": [
        {
          "internalType": "address",
          "name": "_owner",
          "type": "address"
        }
      ],
      "name": "getAccessList",
      "outputs": [
        {
          "internalType": "address[]",
          "name": "",
          "type": "address[]"
        }
      ],
      "stateMutability": "view",
      "type": "function"
    },
    {
      "inputs": [
        {
          "internalType": "address",
          "name": "_owner",
          "type": "address"
        },
        {
          "internalType": "string",
          "name": "_category",
          "type": "string"
        }
      ],
      "name": "getDocuments",
      "outputs": [
        {
          "internalType": "string[]",
          "name": "",
          "type": "string[]"
        }
      ],
      "stateMutability": "view",
      "type": "function"
    },
    {
      "inputs": [
        {
          "internalType": "address",
          "name": "_user",
          "type": "address"
        }
      ],
      "name": "grantAccess",
      "outputs": [],
      "stateMutability": "nonpayable",
      "type": "function"
    },
    {
      "inputs": [
        {
          "internalType": "address",
          "name": "_user",
          "type": "address"
        }
      ],
      "name": "revokeAccess",
      "outputs": [],
      "stateMutability": "nonpayable",
      "type": "function"
    },
    {
      "inputs": [
        {
          "internalType": "string",
          "name": "_cid",
          "type": "string"
        },
        {
          "internalType": "string",
          "name": "_category",
          "type": "string"
        }
      ],
      "name": "uploadDocument",
      "outputs": [],
      "stateMutability": "nonpayable",
      "type": "function"
    }
  ],
  "bytecode": "0x608060405234801561001057600080fd5b50611704806100206000396000f3fe608060405234801561001057600080fd5b50600436106100625760003560e01c80630ae5e739146100675780631fb7574e146100835780634464fe33146100b357806362e1f745146100cf57806380efcb3c146100ff57806385e685311461012f575b600080fd5b610081600480360381019061007c9190610c0d565b61014b565b005b61009d60048036038101906100989190610d80565b6103a6565b6040516100aa9190610f1d565b60405180910390f35b6100cd60048036038101906100c89190610f3f565b6105d9565b005b6100e960048036038101906100e49190610fb7565b6106ba565b6040516100f69190611012565b60405180910390f35b61011960048036038101906101149190610c0d565b61074e565b60405161012691906110eb565b60405180910390f35b61014960048036038101906101449190610c0d565b61081b565b005b600160003373ffffffffffffffffffffffffffffffffffffffff1673ffffffffffffffffffffffffffffffffffffffff16815260200190815260200160002060008273ffffffffffffffffffffffffffffffffffffffff1673ffffffffffffffffffffffffffffffffffffffff16815260200190815260200160002060009054906101000a900460ff1615610215576040517f08c379a000000000000000000000000000000000000000000000000000000000815260040161020c9061116a565b60405180910390fd5b60018060003373ffffffffffffffffffffffffffffffffffffffff1673ffffffffffffffffffffffffffffffffffffffff16815260200190815260200160002060008373ffffffffffffffffffffffffffffffffffffffff1673ffffffffffffffffffffffffffffffffffffffff16815260200190815260200160002060006101000a81548160ff021916908315150217905550600260003373ffffffffffffffffffffffffffffffffffffffff1673ffffffffffffffffffffffffffffffffffffffff168152602001908152602001600020819080600181540180825580915050600190039060005260206000200160009091909190916101000a81548173ffffffffffffffffffffffffffffffffffffffff021916908373ffffffffffffffffffffffffffffffffffffffff1602179055508073ffffffffffffffffffffffffffffffffffffffff163373ffffffffffffffffffffffffffffffffffffffff167f9f520b3bfc56d06f7065d10b4683b3f57ac8895d5026cd176dee95ce1454cb8d60405160405180910390a350565b60608273ffffffffffffffffffffffffffffffffffffffff163373ffffffffffffffffffffffffffffffffffffffff1614806104685750600160008473ffffffffffffffffffffffffffffffffffffffff1673ffffffffffffffffffffffffffffffffffffffff16815260200190815260200160002060003373ffffffffffffffffffffffffffffffffffffffff1673ffffffffffffffffffffffffffffffffffffffff16815260200190815260200160002060009054906101000a900460ff165b6104a7576040517f08c379a000000000000000000000000000000000000000000000000000000000815260040161049e906111d6565b60405180910390fd5b6000808473ffffffffffffffffffffffffffffffffffffffff1673ffffffffffffffffffffffffffffffffffffffff168152602001908152602001600020826040516104f39190611232565b9081526020016040518091039020805480602002602001604051908101604052809291908181526020016000905b828210156105cd57838290600052602060002001805461054090611278565b80601f016020809104026020016040519081016040528092919081815260200182805461056c90611278565b80156105b95780601f1061058e576101008083540402835291602001916105b9565b820191906000526020600020905b81548152906001019060200180831161059c57829003601f168201915b505050505081526020019060010190610521565b50505050905092915050565b6000803373ffffffffffffffffffffffffffffffffffffffff1673ffffffffffffffffffffffffffffffffffffffff168152602001908152602001600020816040516106259190611232565b908152602001604051809103902082908060018154018082558091505060019003906000526020600020016000909190919091509081610665919061145f565b503373ffffffffffffffffffffffffffffffffffffffff167f63630f357f7a0fe7466b2c369dab72c6b5e951f8e9c0de24fa8f4ee1d10c62d983836040516106ae92919061156a565b60405180910390a25050565b6000600160008473ffffffffffffffffffffffffffffffffffffffff1673ffffffffffffffffffffffffffffffffffffffff16815260200190815260200160002060008373ffffffffffffffffffffffffffffffffffffffff1673ffffffffffffffffffffffffffffffffffffffff16815260200190815260200160002060009054906101000a900460ff16905092915050565b6060600260008373ffffffffffffffffffffffffffffffffffffffff1673ffffffffffffffffffffffffffffffffffffffff16815260200190815260200160002080548060200260200160405190810160405280929190818152602001828054801561080f57602002820191906000526020600020905b8160009054906101000a900473ffffffffffffffffffffffffffffffffffffffff1673ffffffffffffffffffffffffffffffffffffffff16815260200190600101908083116107c5575b50505050509050919050565b600160003373ffffffffffffffffffffffffffffffffffffffff1673ffffffffffffffffffffffffffffffffffffffff16815260200190815260200160002060008273ffffffffffffffffffffffffffffffffffffffff1673ffffffffffffffffffffffffffffffffffffffff16815260200190815260200160002060009054906101000a900460ff166108e4576040517f08c379a00000000000000000000000000000000000000000000000000000000081526004016108db906115ed565b60405180910390fd5b6000600160003373ffffffffffffffffffffffffffffffffffffffff1673ffffffffffffffffffffffffffffffffffffffff16815260200190815260200160002060008373ffffffffffffffffffffffffffffffffffffffff1673ffffffffffffffffffffffffffffffffffffffff16815260200190815260200160002060006101000a81548160ff0219169083151502179055506000600260003373ffffffffffffffffffffffffffffffffffffffff1673ffffffffffffffffffffffffffffffffffffffff168152602001908152602001600020905060005b8180549050811015610b3c578273ffffffffffffffffffffffffffffffffffffffff168282815481106109f5576109f461160d565b5b9060005260206000200160009054906101000a900473ffffffffffffffffffffffffffffffffffffffff1673ffffffffffffffffffffffffffffffffffffffff1603610b2f578160018380549050610a4d919061166b565b81548110610a5e57610a5d61160d565b5b9060005260206000200160009054906101000a900473ffffffffffffffffffffffffffffffffffffffff16828281548110610a9c57610a9b61160d565b5b9060005260206000200160006101000a81548173ffffffffffffffffffffffffffffffffffffffff021916908373ffffffffffffffffffffffffffffffffffffffff16021790555081805480610af557610af461169f565b5b6001900381819060005260206000200160006101000a81549073ffffffffffffffffffffffffffffffffffffffff02191690559055610b3c565b80806001019150506109bf565b508173ffffffffffffffffffffffffffffffffffffffff163373ffffffffffffffffffffffffffffffffffffffff167f825c8be24eb0df19500f63e86c29e7d0d951e73056b889b891d85e40938d9b6e60405160405180910390a35050565b6000604051905090565b600080fd5b600080fd5b600073ffffffffffffffffffffffffffffffffffffffff82169050919050565b6000610bda82610baf565b9050919050565b610bea81610bcf565b8114610bf557600080fd5b50565b600081359050610c0781610be1565b92915050565b600060208284031215610c2357610c22610ba5565b5b6000610c3184828501610bf8565b91505092915050565b600080fd5b600080fd5b6000601f19601f8301169050919050565b7f4e487b7100000000000000000000000000000000000000000000000000000000600052604160045260246000fd5b610c8d82610c44565b810181811067ffffffffffffffff82111715610cac57610cab610c55565b5b80604052505050565b6000610cbf610b9b565b9050610ccb8282610c84565b919050565b600067ffffffffffffffff821115610ceb57610cea610c55565b5b610cf482610c44565b9050602081019050919050565b82818337600083830152505050565b6000610d23610d1e84610cd0565b610cb5565b905082815260208101848484011115610d3f57610d3e610c3f565b5b610d4a848285610d01565b509392505050565b600082601f830112610d6757610d66610c3a565b5b8135610d77848260208601610d10565b91505092915050565b60008060408385031215610d9757610d96610ba5565b5b6000610da585828601610bf8565b925050602083013567ffffffffffffffff811115610dc657610dc5610baa565b5b610dd285828601610d52565b9150509250929050565b600081519050919050565b600082825260208201905092915050565b6000819050602082019050919050565b600081519050919050565b600082825260208201905092915050565b60005b83811015610e42578082015181840152602081019050610e27565b60008484015250505050565b6000610e5982610e08565b610e638185610e13565b9350610e73818560208601610e24565b610e7c81610c44565b840191505092915050565b6000610e938383610e4e565b905092915050565b6000602082019050919050565b6000610eb382610ddc565b610ebd8185610de7565b935083602082028501610ecf85610df8565b8060005b85811015610f0b5784840389528151610eec8582610e87565b9450610ef783610e9b565b925060208a01995050600181019050610ed3565b50829750879550505050505092915050565b60006020820190508181036000830152610f378184610ea8565b905092915050565b60008060408385031215610f5657610f55610ba5565b5b600083013567ffffffffffffffff811115610f7457610f73610baa565b5b610f8085828601610d52565b925050602083013567ffffffffffffffff811115610fa157610fa0610baa565b5b610fad85828601610d52565b9150509250929050565b60008060408385031215610fce57610fcd610ba5565b5b6000610fdc85828601610bf8565b9250506020610fed85828601610bf8565b9150509250929050565b60008115159050919050565b61100c81610ff7565b82525050565b60006020820190506110276000830184611003565b92915050565b600081519050919050565b600082825260208201905092915050565b6000819050602082019050919050565b61106281610bcf565b82525050565b60006110748383611059565b60208301905092915050565b6000602082019050919050565b60006110988261102d565b6110a28185611038565b93506110ad83611049565b8060005b838110156110de5781516110c58882611068565b97506110d083611080565b9250506001810190506110b1565b5085935050505092915050565b60006020820190508181036000830152611105818461108d565b905092915050565b600082825260208201905092915050565b7f416c7265616479206772616e7465640000000000000000000000000000000000600082015250565b6000611154600f8361110d565b915061115f8261111e565b602082019050919050565b6000602082019050818103600083015261118381611147565b9050919050565b7f4e6f206163636573730000000000000000000000000000000000000000000000600082015250565b60006111c060098361110d565b91506111cb8261118a565b602082019050919050565b600060208201905081810360008301526111ef816111b3565b9050919050565b600081905092915050565b600061120c82610e08565b61121681856111f6565b9350611226818560208601610e24565b80840191505092915050565b600061123e8284611201565b915081905092915050565b7f4e487b7100000000000000000000000000000000000000000000000000000000600052602260045260246000fd5b6000600282049050600182168061129057607f821691505b6020821081036112a3576112a2611249565b5b50919050565b60008190508160005260206000209050919050565b60006020601f8301049050919050565b600082821b905092915050565b60006008830261130b7fffffffffffffffffffffffffffffffffffffffffffffffffffffffffffffffff826112ce565b61131586836112ce565b95508019841693508086168417925050509392505050565b6000819050919050565b6000819050919050565b600061135c6113576113528461132d565b611337565b61132d565b9050919050565b6000819050919050565b61137683611341565b61138a61138282611363565b8484546112db565b825550505050565b600090565b61139f611392565b6113aa81848461136d565b505050565b5b818110156113ce576113c3600082611397565b6001810190506113b0565b5050565b601f821115611413576113e4816112a9565b6113ed846112be565b810160208510156113fc578190505b611410611408856112be565b8301826113af565b50505b505050565b600082821c905092915050565b600061143660001984600802611418565b1980831691505092915050565b600061144f8383611425565b9150826002028217905092915050565b61146882610e08565b67ffffffffffffffff81111561148157611480610c55565b5b61148b8254611278565b6114968282856113d2565b600060209050601f8311600181146114c957600084156114b7578287015190505b6114c18582611443565b865550611529565b601f1984166114d7866112a9565b60005b828110156114ff578489015182556001820191506020850194506020810190506114da565b8683101561151c5784890151611518601f891682611425565b8355505b6001600288020188555050505b505050505050565b600061153c82610e08565b611546818561110d565b9350611556818560208601610e24565b61155f81610c44565b840191505092915050565b600060408201905081810360008301526115848185611531565b905081810360208301526115988184611531565b90509392505050565b7f4e6f74206772616e746564207965740000000000000000000000000000000000600082015250565b60006115d7600f8361110d565b91506115e2826115a1565b602082019050919050565b60006020820190508181036000830152611606816115ca565b9050919050565b7f4e487b7100000000000000000000000000000000000000000000000000000000600052603260045260246000fd5b7f4e487b7100000000000000000000000000000000000000000000000000000000600052601160045260246000fd5b60006116768261132d565b91506116818361132d565b92508282039050818111156116995761169861163c565b5b92915050565b7f4e487b7100000000000000000000000000000000000000000000000000000000600052603160045260246000fdfea2646970667358221220d2e127fa44522ac79c479fa97b55280a10ef5b6a56b8afbec90fc07ea677256864736f6c63430008180033",
  "linkReferences": {},
  "deployedLinkReferences": {}
}